{
  "_format": "hh-sol-artifact-1",
  "contractName": "Greeter",
  "sourceName": "contracts/Greeter.sol",
  "abi": [
    {
      "inputs": [],
      "stateMutability": "nonpayable",
      "type": "constructor"
    },
    {
      "inputs": [],
      "name": "getMyLuckyNumber",
      "outputs": [
        {
          "internalType": "uint256",
          "name": "",
          "type": "uint256"
        }
      ],
      "stateMutability": "view",
      "type": "function"
    },
    {
      "inputs": [
        {
          "internalType": "address",
          "name": "",
          "type": "address"
        }
      ],
      "name": "ownerToLuckyNumber",
      "outputs": [
        {
          "internalType": "uint256",
          "name": "",
          "type": "uint256"
        }
      ],
      "stateMutability": "view",
      "type": "function"
    },
    {
      "inputs": [
        {
          "internalType": "uint256",
          "name": "_luckyNumber",
          "type": "uint256"
        }
      ],
      "name": "saveLuckyNumber",
      "outputs": [],
      "stateMutability": "nonpayable",
      "type": "function"
    },
    {
      "inputs": [
        {
          "internalType": "uint256",
          "name": "a",
          "type": "uint256"
        },
        {
          "internalType": "uint256",
          "name": "b",
          "type": "uint256"
        }
      ],
      "name": "sum",
      "outputs": [
        {
          "internalType": "uint256",
          "name": "",
          "type": "uint256"
        }
      ],
      "stateMutability": "pure",
      "type": "function"
    },
    {
      "inputs": [
        {
          "internalType": "uint256",
          "name": "_luckyNumber",
          "type": "uint256"
        },
        {
          "internalType": "uint256",
          "name": "_newLuckyNumber",
          "type": "uint256"
        }
      ],
      "name": "updateLuckyNumber",
      "outputs": [],
      "stateMutability": "nonpayable",
      "type": "function"
    }
  ],
  "bytecode": "0x608060405234801561001057600080fd5b5061005a6040518060400160405280601881526020017f4465706c6f7965642047726565746572206279202725732700000000000000008152503361005f60201b61035c1760201c565b610234565b6100fd8282604051602401610075929190610172565b6040516020818303038152906040527f319af333000000000000000000000000000000000000000000000000000000007bffffffffffffffffffffffffffffffffffffffffffffffffffffffff19166020820180517bffffffffffffffffffffffffffffffffffffffffffffffffffffffff838183161783525050505061010160201b60201c565b5050565b60008151905060006a636f6e736f6c652e6c6f679050602083016000808483855afa5050505050565b610133816101be565b82525050565b6000610144826101a2565b61014e81856101ad565b935061015e8185602086016101f0565b61016781610223565b840191505092915050565b6000604082019050818103600083015261018c8185610139565b905061019b602083018461012a565b9392505050565b600081519050919050565b600082825260208201905092915050565b60006101c9826101d0565b9050919050565b600073ffffffffffffffffffffffffffffffffffffffff82169050919050565b60005b8381101561020e5780820151818401526020810190506101f3565b8381111561021d576000848401525b50505050565b6000601f19601f8301169050919050565b610844806102436000396000f3fe608060405234801561001057600080fd5b50600436106100575760003560e01c80632f60c9291461005c57806370d2cd111461007857806387ddd15114610096578063cad0899b146100c6578063e903e105146100f6575b600080fd5b6100766004803603810190610071919061049d565b610112565b005b6100806101db565b60405161008d9190610629565b60405180910390f35b6100b060048036038101906100ab919061044b565b610221565b6040516100bd9190610629565b60405180910390f35b6100e060048036038101906100db919061049d565b610239565b6040516100ed9190610629565b60405180910390f35b610110600480360381019061010b9190610474565b61024f565b005b81806000803373ffffffffffffffffffffffffffffffffffffffff1673ffffffffffffffffffffffffffffffffffffffff1681526020019081526020016000205414610193576040517f08c379a000000000000000000000000000000000000000000000000000000000815260040161018a906105c9565b60405180910390fd5b816000803373ffffffffffffffffffffffffffffffffffffffff1673ffffffffffffffffffffffffffffffffffffffff16815260200190815260200160002081905550505050565b60008060003373ffffffffffffffffffffffffffffffffffffffff1673ffffffffffffffffffffffffffffffffffffffff16815260200190815260200160002054905090565b60006020528060005260406000206000915090505481565b600081836102479190610660565b905092915050565b60008060003373ffffffffffffffffffffffffffffffffffffffff1673ffffffffffffffffffffffffffffffffffffffff16815260200190815260200160002054146102d0576040517f08c379a00000000000000000000000000000000000000000000000000000000081526004016102c790610609565b60405180910390fd5b806000811415610315576040517f08c379a000000000000000000000000000000000000000000000000000000000815260040161030c906105e9565b60405180910390fd5b816000803373ffffffffffffffffffffffffffffffffffffffff1673ffffffffffffffffffffffffffffffffffffffff168152602001908152602001600020819055505050565b6103f48282604051602401610372929190610599565b6040516020818303038152906040527f319af333000000000000000000000000000000000000000000000000000000007bffffffffffffffffffffffffffffffffffffffffffffffffffffffff19166020820180517bffffffffffffffffffffffffffffffffffffffffffffffffffffffff83818316178352505050506103f8565b5050565b60008151905060006a636f6e736f6c652e6c6f679050602083016000808483855afa5050505050565b600081359050610430816107e0565b92915050565b600081359050610445816107f7565b92915050565b60006020828403121561045d57600080fd5b600061046b84828501610421565b91505092915050565b60006020828403121561048657600080fd5b600061049484828501610436565b91505092915050565b600080604083850312156104b057600080fd5b60006104be85828601610436565b92505060206104cf85828601610436565b9150509250929050565b6104e2816106b6565b82525050565b60006104f382610644565b6104fd818561064f565b935061050d8185602086016106f2565b61051681610754565b840191505092915050565b600061052e601f8361064f565b915061053982610765565b602082019050919050565b6000610551601d8361064f565b915061055c8261078e565b602082019050919050565b600061057460208361064f565b915061057f826107b7565b602082019050919050565b610593816106e8565b82525050565b600060408201905081810360008301526105b381856104e8565b90506105c260208301846104d9565b9392505050565b600060208201905081810360008301526105e281610521565b9050919050565b6000602082019050818103600083015261060281610544565b9050919050565b6000602082019050818103600083015261062281610567565b9050919050565b600060208201905061063e600083018461058a565b92915050565b600081519050919050565b600082825260208201905092915050565b600061066b826106e8565b9150610676836106e8565b9250827fffffffffffffffffffffffffffffffffffffffffffffffffffffffffffffffff038211156106ab576106aa610725565b5b828201905092915050565b60006106c1826106c8565b9050919050565b600073ffffffffffffffffffffffffffffffffffffffff82169050919050565b6000819050919050565b60005b838110156107105780820151818401526020810190506106f5565b8381111561071f576000848401525b50505050565b7f4e487b7100000000000000000000000000000000000000000000000000000000600052601160045260246000fd5b6000601f19601f8301169050919050565b7f4e6f7420796f75722070726576696f7573206c75636b79206e756d6265722e00600082015250565b7f4c75636b79206e756d6265722073686f756c64206e6f7420626520302e000000600082015250565b7f596f7520616c726561647920686176652061206c75636b79206e756d6265722e600082015250565b6107e9816106b6565b81146107f457600080fd5b50565b610800816106e8565b811461080b57600080fd5b5056fea264697066735822122012dfc7d496a82572205f00a709a7d090c7c89dc0f0f75f230eaeddc6ba2140b364736f6c63430008040033",
  "linkReferences": {},
  "deployedLinkReferences": {}
}